:040000000DEF00F010
:0400080071EF83F021
:06001800FF0027EF83F05A
:10F2D00000000810200000000000000000000000F6
:10F2E0000000000000000000F80000000000000026
:10F2F000333000000000100C06100C060000000067
:10F30000000000000040C07840C0784000043F0486
:10F31000043F040400007088FC083000000018203E
:10F32000FF211E0000F008F000E018000000211C82
:10F33000031E211E0000F00888700000001E21231B
:10F34000241927211010160E0000000000000000F4
:10F350000000000000000000E018040200000000AF
:10F36000071820400000020418E0000000004020C0
:10F370001807000000404080F08040400002020179
:10F380000F01020200000000F00000000001010176
:10F390001F01010100000000000000000080B070AB
:10F3A000000000000000000000000000000001015B
:10F3B00001010101010000000000000000003030E8
:10F3C00000000000000000000080601804006018C9
:10F3D000060100000000E010080810E000000F1017
:10F3E0002020100F00001010F80000000000202066
:10F3F0003F202000000070080808887000003028B6
:10F40000242221300000300888884830000018206D
:10F410002020110E000000C02010F800000007049A
:10F4200024243F240000F8088888080800001921D7
:10F430002020110E0000E0108888180000000F1135
:10F440002020110E0000380808C83808000000000D
:10F450003F000000000070880808887000001C222F
:10F460002121221C0000E010080810E000000031FB
:10F470002222110F00000000C0C0000000000000A8
:10F48000303000000000000080000000000000801C
:10F490006000000000000080402010080000010211
:10F4A0000408102000404040404040400004040454
:10F4B0000404040400000810204080000000201014
:10F4C0000804020100007048080808F0000000006D
:10F4D0003036010000C030C828E810E000071827C7
:10F4E0002423140B000000C038E0000000203C235F
:10F4F000020227382008F8888888700000203F2002
:10F500002020110E00C03008080808380007182015
:10F51000202010080008F808080810E000203F200C
:10F520002020100F0008F88888E8081000203F20ED
:10F53000202320180008F88888E8081000203F20C1
:10F540000003000000C03008080838000007182039
:10F5500020221E020008F808000008F808203F21B9
:10F560000101213F20000808F808080000002020C1
:10F570003F2020000000000808F8080800C0808034
:10F58000807F00000008F888C028180800203F206D
:10F59000012638200008F8080000000000203F2065
:10F5A000202020300008F8F800F8F80800203F007C
:10F5B0003F003F200008F830C00008F808203F2036
:10F5C0000007183F00E01008080810E0000F1020A6
:10F5D0002020100F0008F808080808F000203F213C
:10F5E0000101010000E01008080810E0000F1824D5
:10F5F0002438504F0008F8888888887000203F2001
:10F6000000030C30200070880808083800003820FB
:10F610002121221C00180808F80808180000002002
:10F620003F2000000008F808000008F808001F202C
:10F630002020201F000878880000C8380800000734
:10F64000380E010000F80800F80008F800033C0735
:10F6500000073C0300081868808068180820302CD8
:10F6600003032C30200838C800C8380800000020E8
:10F670003F2000000010080808C83808002038267D
:10F680002120201800000000FE02020200000000FD
:10F690007F40404000000C30C0000000000000002F
:10F6A000010638C00000020202FE000000004040D7
:10F6B000407F00000000000402020204000000007D
:10F6C00000000000000000000000000000808080BA
:10F6D00080808080800002020400000000000000A2
:10F6E00000000000000000808080800000001924DD
:10F6F0002222223F2008F8008080000000003F11F5
:10F700002020110E000000008080800000000E11FB
:10F710002020201100000000808088F800000E11D9
:10F720002020103F200000808080800000001F22E9
:10F730002222221300008080F08888881800202070
:10F740003F202000000000808080808000006B94BB
:10F75000949493600008F8008080800000203F218E
:10F760000000203F2000809898000000000020202A
:10F770003F20200000000000809898000000C0801A
:10F7800080807F000008F8000080808000203F24F7
:10F79000022D302000000808F800000000002020A2
:10F7A0003F202000008080808080808000203F20DB
:10F7B000003F20003F8080008080800000203F21AB
:10F7C0000000203F200000808080800000001F207B
:10F7D0002020201F00808000808000000080FFA18A
:10F7E0002020110E000000008080808000000E119B
:10F7F0002020A0FF80808080008080800020203F2B
:10F8000021200001000000808080808000003324DF
:10F810002424241900008080E08080000000000083
:10F820001F202000008080000000808000001F203A
:10F830002020103F20808080000080808000010E0A
:10F84000300806010080800080008080800F300C2E
:10F85000030C300F00008080008080800000203189
:10F860002E0E312000808080000080808080818E7C
:10F8700070180601000080808080808000002130A8
:10F880002C2221300000000000807C0202000000D9
:10F8900000003F404000000000FF000000000000AA
:10F8A00000FF0000000002027C80000000004040D9
:10F8B0003F000000000006010102020404000000F5
:10F8C0000000000000000000000000000000000038
:10F8D0000000000000000000000000000000000028
:10F8E0000000000000000000000000000000000018
:10F8F00000000000000000000000000000000340C5
:10F9000002000000000000000000000000000000F5
:10F9100000000000000000000000000000000000E7
:10F9200000000000000000000000000000000000D7
:10F9300000000000000000000000000000000000C7
:10F9400000000000000000000000000000000000B7
:10F95000000000000000000000C080000000000067
:10F960000000060A050D01010387FEFEFCF8F00009
:10F970000000000000000000000000000000000087
:10F980000000000000000000000000000000000077
:10F990000000000000000000000000000000000067
:10F9A00000000000000080808000000000000000D7
:10F9B000000000000000000080C0C0000000000047
:10F9C0000000000000000000000000000000000037
:10F9D0000000000000000000000000000000000027
:10F9E00000060E080C0C0C0E0F0F07070303000097
:10F9F0000000000000000000000000000000000007
:10FA000000000000000000000000000000000000F6
:10FA100000000000000000000000000000000000E6
:10FA200080E03098DEE6E7F7D7D65656D7D75FDFC7
:10FA30003F3F2F9FD7DF6F6B6B7FF7F3F3E0EC98BF
:10FA400030E08000000000000000000000808060C6
:10FA50007070604060E0E0E0E0E0E0E0C0C0E0F056
:10FA6000E040000000000000000000000000000076
:10FA70000000000000000000000000000000000086
:10FA80000000000000000000000000000000000076
:10FA90000000000000000000000000000000000066
:10FAA00003FBE0DFB1EF5FB9B0A0E66E2EB6B99F01
:10FAB000AFA0A7BF99B6B6A6A6B0B0A9DFCFF07F1A
:10FAC00077FD018080800000000008EEB37DBE7FDE
:10FAD000C787B7B7B7CD7D8393FBCDB535A587CEA7
:10FAE000FE1CF9C31C100000000000000000000014
:10FAF0000000000000000000000000000000000006
:10FB000000000000000000000000000000000000F5
:10FB100000000000000000000000000000000F1FB7
:10FB20003F3C73EF9E7EFDFDEDADFDDDFFBFFF5F52
:10FB3000DFEFFFFFFF6FFFDFEFFDDDFDBCFE7EBFF0
:10FB4000EF7B3E1F0F0700000E1F3C775F3D7DFBE4
:10FB5000FB7AFAFEFEFEFEFFFF7EFEBFFDF5F5F628
:10FB6000FAFBDF67783C1C0000000000000000800A
:10FB70008000006060000000000000000000000045
:10FB8000000000000000C080000080800000000035
:10FB9000000000004000103880000080C0C000005D
:10FBA000000000000001000081838387E7EFEFEB96
:10FBB000FFF7DFFAFEFFEBEEEEE767636160606080
:10FBC000E0E0E06060606060607070707070707045
:10FBD00071737B7F7F7F7F7F7E7F77767373717199
:10FBE00070717070707070F0F0F0F0F0F0F0F1F192
:10FBF000F1E0E0E8ECEEE7E2E4E8D0E0E0C0C0C02D
:10FC0000C0C0C0101010101F13A1ADC8494742401A
:10FC1000C0DC78606020213130111A1B0B0D0C0400
:10FC200006060603030313317171618181412026A9
:10FC30000C1C3078000084C484840C04020201018E
:10FC4000070E0E0000000000000000000000000091
:10FC500000000000000000000060E0E0C080000044
:10FC6000000000000000000060E0C0C000008181D2
:10FC70008141412121131313030B0B0B0F0F0707B6
:10FC8000070707000000000000030101000006074D
:10FC90000303000000000000000000000000080C4A
:10FCA00040EE79350208080404021F3D3C000000C4
:10FCB0000000040424000D303101030000000000A6
:10FCC0000000000000000000000000000082C6C626
:10FCD000366844B4A05262020202000103327A3E46
:10FCE0001A02020202020202001D3D1D0101000073
:10FCF0000000000000000000000000000000000004
:10FD000000000000050720000000000000005F0068
:10FD1000000003000300143E143E14242A7F2A121C
:10FD20004333086661364955225000050300000040
:10FD30001C2241000041221C0014083E081408083F
:10FD40003E080800503000000808080808006060FD
:10FD5000000020100804023E5149453E0004027F85
:10FD600000426151494622414949361814127F1018
:10FD700027454545393E4949493201017109073650
:10FD800049494936264949493E0036360000005661
:10FD900036000008142241001414141414004122E7
:10FDA000140802015109063E4159555E7E090909B0
:10FDB0007E7F494949363E414141227F4141413E92
:10FDC0007F494949417F090909013E4141493A7F3B
:10FDD0000808087F00417F4100304040403F7F08D5
:10FDE0001422417F404040407F020C027F7F02048A
:10FDF000087F3E4141413E7F090909061E2121211C
:10FE00005E7F09090976264949493201017F0101CE
:10FE10003F4040403F1F2040201F7F2010207F4157
:10FE2000221C224107087008076151494543007FA1
:10FE300041000002040810200000417F000402017C
:10FE40000204404040404000010204002054545449
:10FE5000787F444444383844444444384444447FDC
:10FE6000385454541804047E0505085454543C7FF7
:10FE70000804047800447D40002040443D007F1089
:10FE800028440000417F40007C047804787C08040A
:10FE9000047838444444387C1414140808141414A6
:10FEA0007C007C080404485454542004043F444417
:10FEB0003C4040207C1C2040201C3C4030403C44C6
:10FEC000281028440C5050503C4464544C440008C2
:10FED00036414100007F0000414136080002010226
:10FEE00004021414141414000000000000000000A8
:10FEF0000000000000000000000000000000000002
:10FF000000000000000000000000000000000000F1
:10FF100000000000000000000000000000000000E1
:10FF200000000000000000000000000000000000D1
:10FF300000000000000000000000000000000000C1
:10FF400000000000000000000000000000000000B1
:10FF500000000000000000000000000000000000A1
:10FF600000000000000000000000000000AED5808E
:10FF7000A83FD300408D10A1C8DA12819FD922DB9F
:10FF800040A4A6AF0010406769746875622E636F65
:10FF90006D2F6D6A6E6572692F0053656C656374B1
:10FFA000204C45442050726F66696C65004120709A
:10FFB0006572736F6E616C2070726F6A6563740036
:10FFC0007773323831322D636F6E74726F6C6C657B
:10FFD000720041646A757374204C454420436F7508
:10FFE0006E74006279204D4A204E657269004D6141
:0FFFF000696E204D656E750041626F757400007B
:020000040001F9
:100000000001826F000E0001866F000E856F000EEA
:10001000886F000E876F000E846F000E836F780E5E
:1000200082257C6F7D6B000E7D23000E7F6F000E9E
:100030007E6FF5EF80F0000E866F000E856F2CEF5F
:1000400080F0000E3B6E000E3C6E000E3D6EB3EC79
:1000500084F00001854B862B8351855D8651800A93
:100060003E6E8451800A3E58D8A039EF80F03BEFB5
:1000700080F021EF80F082C080F0816B6BEF80F028
:1000800080C03EF07F0E3F6E000E406E3E2A4CEF69
:1000900080F0403440323F323E2E49EF80F03FC086
:1000A00041F040C042F0000E42BEFF0E436E446E6F
:1000B00042C043F041C042F0416A41C03BF042C0FF
:1000C0003CF043C03DF0B3EC84F00001854B862B3F
:1000D0008007D8A081078751855D8651800A3E6ED2
:1000E0008851800A3E58D8A078EF80F07AEF80F0EF
:1000F00040EF80F08751851907E188518619D8A40F
:1001000084EF80F086EF80F08EEF80F0000E3B6E83
:100110007F0E3C6E000E3D6EB3EC84F0000188BF94
:100120009BEF80F0885109E1770E875DD8A09BEFA7
:1001300080F09DEF80F0A3EF80F0000E886F770EC7
:10014000876FA9EF80F0010E8725876F000E882149
:10015000886F82513E6E3F6A3E50875D8851800AAB
:10016000406E3F50800A4058D8A0B9EF80F0BBEFF6
:1001700080F0DAEF80F0770E87198811D8B4C3EFDA
:1001800080F0C5EF80F0CEEF80F08251875D786F10
:100190008851D8A08805796FD4EF80F0010E8325AF
:1001A000786F000E8421796F78C083F079C084F075
:1001B000DEEF80F0000E846F000E836F150E3E6E32
:1001C000C60EE82EFED73E2EFCD700D0030E3F6EA3
:1001D000080E3E6E770EE82EFED73E2EFCD73F2E41
:1001E000FAD700F000017E4B7F2B7C517E5D7D5164
:1001F0007F59D8A0FEEF80F000EF81F01BEF80F078
:10020000050E3F6E0F0E3E6EF10EE82EFED73E2E0F
:10021000FCD73F2EFAD700F0000E0001886F770E52
:10022000876F000E846F770E836F000E7F6F000E56
:100230007E6F27EF82F0000E866F000E856F2CEF29
:1002400081F0000E3B6E000E3C6E000E3D6EB3EC76
:1002500084F00001854B862B8751855D8651800A8D
:100260003E6E8851800A3E58D8A039EF81F03BEFAE
:1002700081F021EF81F0854B862B010E87253E6EA4
:10028000000E88213F6E85513E1807E186513F18C8
:10029000D8A44DEF81F04FEF81F057EF81F0000EC1
:1002A0003B6E7F0E3C6E000E3D6EB3EC84F0000E94
:1002B0000001816F010E806F88EF81F080C03EF0F9
:1002C0007F0E3F6E000E406E3E2A6AEF81F0403492
:1002D00040323F323E2E67EF81F03FC041F040C0D8
:1002E00042F0000E42BEFF0E436E446E42C043F029
:1002F00041C042F0416A41C03BF042C03CF043C0C3
:100300003DF0B3EC84F00001854B862B804B812BB4
:100310008551835D8451800A3E6E8651800A3E5825
:10032000D8B095EF81F097EF81F05EEF81F08551C5
:10033000835D8451800A3E6E8651800A3E58D8B053
:10034000A4EF81F0A6EF81F0AEEF81F0000E3B6EDE
:10035000000E3C6E000E3D6EB3EC84F0000188BFD1
:10036000BCEF81F0885106E18705D8B0BAEF81F083
:10037000BCEF81F0C2EF81F0000E886F000E876F36
:10038000C8EF81F0FF0E8725876FFF0E8821886FE9
:100390008751835D3E6E885184593F6E8251406E15
:1003A000416A3E50405C4150800A426E3F50800A94
:1003B0004258D8A0DEEF81F0E0EF81F0EDEF81F060
:1003C00088BFEDEF81F0885106E18705D8B0EBEFEB
:1003D00081F0EDEF81F00CEF82F084BFFAEF81F055
:1003E000845106E18305D8B0F8EF81F0FAEF81F08F
:1003F00000EF82F0000E7B6F000E7A6F06EF82F046
:10040000FF0E83257A6FFF0E84217B6F7AC083F005
:100410007BC084F010EF82F0000E846F770E836F44
:10042000150E3E6EC60EE82EFED73E2EFCD700D02F
:10043000030E3F6E080E3E6E770EE82EFED73E2E60
:10044000FCD73F2EFAD700F000017E4B7F2B7C516A
:100450007E5D7D517F59D8A030EF82F032EF82F07F
:100460001BEF81F015EF80F01200386E3D0114BFD4
:100470003CEF82F03EEF82F0A1EF82F03850050DA4
:10048000FE0EF324F66EF80EF420F76EF86A000EF6
:10049000F82208006F00D7FF14FD3850050D010E3B
:1004A000F326000EF422FE0EF324F66EF80EF4206E
:1004B000F76EF86A000EF82208006F00D7FF15FDEE
:1004C0003850050D020EF326000EF422FE0EF32422
:1004D000F66EF80EF420F76EF86A000EF8220800A7
:1004E000F5500209166F050E1C6F3850050D030EEE
:1004F000F326000EF422FE0EF324F66EF80EF4201E
:10050000F76EF86A000EF82208006F00D7FF19FD99
:100510003850050D040EF326000EF422FE0EF324CF
:10052000F66EF80EF420F76EF86A000EF822080056
:100530006F00D4FF37F0C4503718FE0B3718C46E65
:10054000148F1200000EBE6E000EBD6E000EBA6E4D
:10055000000EBB6E000EBC6E060EC66EC268C3688F
:10056000620EC46EC5683A017069A00E606F506972
:10057000020E806FF10E406F000E716F040E816FDE
:10058000000E516F0E0E416F000E616F000E5A6F1C
:10059000000E5B6F000E6A6F000E6B6F000E7A6FBD
:1005A000000E7B6F000E826F000E426F000E526FC6
:1005B000180E626F000E726F436953696369736945
:1005C000070E836F44695469646974690F0E846F00
:1005D0001E0E106F100EDE6F140EE26F210E136FE1
:1005E000220E146F1F0E126F010E176F130EE16FA4
:1005F000110EDF6F160ECB6F1200000E426E000E52
:10060000416E13EF83F0000E3E6E000E3F6E000E43
:10061000406E3EC038F03FC039F040C03AF0A0EC28
:1006200084F0414A422A3B50415C3C504258D8A099
:100630001CEF83F01EEF83F003EF83F0150E3D6E89
:10064000C60EE82EFED73D2EFCD700D012009E0E1F
:10065000F66E090EF76E010EF86E00EE45F010EE24
:1006600007F009006F00D7FFEEFFE550E150F9E118
:1006700000EE60F0180EEE6AE806FDE100EE01F013
:10068000340EEE6AE806FDE1080ED56E000ED66E59
:10069000000ED76E0001AAEF84F0000EB36E000EBC
:1006A000B46E060EB56EC20EB16EF70EB06E3901A5
:1006B000A491B0506F00C4FE3AF03B6A3AC03BF0E0
:1006C0003A6A3A104C6E3B504D6E9481B20E376EC2
:1006D000090E386E010E396EC3EC84F0010EB26E55
:1006E0001200390197A177EF83F079EF83F084EF5F
:1006F00083F0A7A17EEF83F080EF83F084EF83F097
:10070000CAEC84F094EF83F094A189EF83F08BEF2F
:1007100083F094EF83F0A4A190EF83F092EF83F045
:1007200094EF83F095EC84F01100000189518A1157
:100730008B11D8B49EEF83F0A0EF83F0ADEF83F080
:1007400002D8ADEF83F00500FA6E8951FD6E8A5133
:10075000FE6E8B51FF6EFA501200120000018C5198
:100760008D118E11D8B4B7EF83F0B9EF83F0C6EFD7
:1007700083F002D8C6EF83F00500FA6E8C51FD6E4F
:100780008D51FE6E8E51FF6EFA5012001200040E53
:10079000A26E330EA16E000EA36E260E9F6E000E8B
:1007A0009E6E3901A7919781B00E376E090E386E93
:1007B000010E396EBCEC84F0B00EA06E1200D6ECC7
:1007C00084F022EC84F034EC84F0A2EC82F089EC2A
:1007D00084F0F6EC83F0C7EC83F054EC84F07DEC0D
:1007E00084F04DEC83F070EC84F01200010E3C01BB
:1007F000756F2C0E766F2B0E776F180E786F080EB4
:10080000796F090E7A6F200E7B6F020E7C6F080ED7
:100810007D6F800E746F1200B2A411EF84F013EF9D
:1008200084F01CEF84F0B2903650B16E6000D7F0C7
:10083000B0FFB28021EF84F03650B16E6000D7F087
:10084000B0FF1200000E3901C06F000EC16F000E24
:10085000C26F000EC36F000EC46F000EC56F000E96
:10086000C66F000EC76F1200040E3D01736F800E3D
:10087000746F180E756F030E7B6F000E796F000E8C
:100880007A6F000E766F6C691200000E35EC82F004
:10089000000E3C6E780E3B6EFDEC82F0060E00EC16
:1008A00080F051EF84F01200010EAE6E000EAD6EBE
:1008B000000EAF6E090EAB6E000EAA6E3901A49544
:1008C000800EAC6E1200376E6000DFF011FD3D014E
:1008D00017AB6DEF84F06FEF84F067EF84F01200D8
:1008E000020E3D01146F200E156F000E166F050EDF
:1008F0001C6F000E196FC4901200800E6E6E040EF5
:100900006D6EC00E6C6E3F015F51FC0B01095F6F95
:100910001200600E3901D96F000EDB6F000EDD6F23
:10092000080EDF6F000EDE6F12003901A4914CC07B
:1009300035F04DC036F00CEC84F0AEEC83F01200D4
:10094000385063EC84F0395063EC84F03A5063EC37
:1009500084F01200DFEC83F0D28ED3EC84F0AFEFA2
:1009600084F00DEF00F03BC038F03CC039F03DC0E2
:100970003AF0A0EC84F0120037C089F038C08AF059
:1009800039C08BF0120037C08CF038C08DF039C000
:100990008EF012003901A79195EC83F0120000EE61
:0509A000400040FF4093
:0E09A60045EC84F01200D29A120012001200EA
:020000040020DA
:10000000FF0FFF0FFF0FFF0FFF0FFF0FFF0FFF0F80
:020000040030CA
:0A0000008CFFF7FF9FFFFFFFFFFFDB
:00000001FF
