:040000000DEF00F010
:040008008DEF8CF0FC
:06001800FF00F9EF8BF080
:10F2F60000000810200000000000000000000000D0
:10F306000000000000000000F800000000000000FF
:10F31600333000000000100C06100C060000000040
:10F32600000000000040C07840C0784000043F0460
:10F33600043F040400007088FC0830000000182018
:10F34600FF211E0000F008F000E018000000211C5C
:10F35600031E211E0000F00888700000001E2123F5
:10F36600241927211010160E0000000000000000CE
:10F376000000000000000000E01804020000000089
:10F38600071820400000020418E00000000040209A
:10F396001807000000404080F08040400002020153
:10F3A6000F01020200000000F00000000001010150
:10F3B6001F01010100000000000000000080B07085
:10F3C6000000000000000000000000000000010135
:10F3D60001010101010000000000000000003030C2
:10F3E60000000000000000000080601804006018A3
:10F3F600060100000000E010080810E000000F10F1
:10F406002020100F00001010F8000000000020203F
:10F416003F2020000000700808088870000030288F
:10F426002422213000003008888848300000182047
:10F436002020110E000000C02010F8000000070474
:10F4460024243F240000F8088888080800001921B1
:10F456002020110E0000E0108888180000000F110F
:10F466002020110E0000380808C8380800000000E7
:10F476003F000000000070880808887000001C2209
:10F486002121221C0000E010080810E000000031D5
:10F496002222110F00000000C0C000000000000082
:10F4A60030300000000000008000000000000080F6
:10F4B60060000000000000804020100800000102EB
:10F4C600040810200040404040404040000404042E
:10F4D60004040404000008102040800000002010EE
:10F4E6000804020100007048080808F00000000047
:10F4F6003036010000C030C828E810E000071827A1
:10F506002423140B000000C038E0000000203C2338
:10F51600020227382008F8888888700000203F20DB
:10F526002020110E00C030080808083800071820EF
:10F53600202010080008F808080810E000203F20E6
:10F546002020100F0008F88888E8081000203F20C7
:10F55600202320180008F88888E8081000203F209B
:10F566000003000000C03008080838000007182013
:10F5760020221E020008F808000008F808203F2193
:10F586000101213F20000808F8080800000020209B
:10F596003F2020000000000808F8080800C080800E
:10F5A600807F00000008F888C028180800203F2047
:10F5B600012638200008F8080000000000203F203F
:10F5C600202020300008F8F800F8F80800203F0056
:10F5D6003F003F200008F830C00008F808203F2010
:10F5E6000007183F00E01008080810E0000F102080
:10F5F6002020100F0008F808080808F000203F2116
:10F606000101010000E01008080810E0000F1824AE
:10F616002438504F0008F8888888887000203F20DA
:10F6260000030C30200070880808083800003820D5
:10F636002121221C00180808F808081800000020DC
:10F646003F2000000008F808000008F808001F2006
:10F656002020201F000878880000C838080000070E
:10F66600380E010000F80800F80008F800033C070F
:10F6760000073C0300081868808068180820302CB2
:10F6860003032C30200838C800C8380800000020C2
:10F696003F2000000010080808C838080020382657
:10F6A6002120201800000000FE02020200000000D7
:10F6B6007F40404000000C30C00000000000000009
:10F6C600010638C00000020202FE000000004040B1
:10F6D600407F000000000004020202040000000057
:10F6E6000000000000000000000000000080808094
:10F6F600808080808000020204000000000000007C
:10F7060000000000000000808080800000001924B6
:10F716002222223F2008F8008080000000003F11CE
:10F726002020110E000000008080800000000E11D5
:10F736002020201100000000808088F800000E11B3
:10F746002020103F200000808080800000001F22C3
:10F756002222221300008080F0888888180020204A
:10F766003F202000000000808080808000006B9495
:10F77600949493600008F8008080800000203F2168
:10F786000000203F20008098980000000000202004
:10F796003F20200000000000809898000000C080F4
:10F7A60080807F000008F8000080808000203F24D1
:10F7B600022D302000000808F8000000000020207C
:10F7C6003F202000008080808080808000203F20B5
:10F7D600003F20003F8080008080800000203F2185
:10F7E6000000203F200000808080800000001F2055
:10F7F6002020201F00808000808000000080FFA164
:10F806002020110E000000008080808000000E1174
:10F816002020A0FF80808080008080800020203F04
:10F8260021200001000000808080808000003324B9
:10F836002424241900008080E0808000000000005D
:10F846001F202000008080000000808000001F2014
:10F856002020103F20808080000080808000010EE4
:10F86600300806010080800080008080800F300C08
:10F87600030C300F00008080008080800000203163
:10F886002E0E312000808080000080808080818E56
:10F896007018060100008080808080800000213082
:10F8A6002C2221300000000000807C0202000000B3
:10F8B60000003F404000000000FF00000000000084
:10F8C60000FF0000000002027C80000000004040B3
:10F8D6003F000000000006010102020404000000CF
:10F8E6000000000000B81F01A01B018A1E01BC0910
:10F8F600014A0D01761301101101AA1F016E2001A4
:10F906006A2001A81C010A20011220019C1F010285
:10F916002001701F01CC1501E41401601F01034092
:10F9260002000000000000000000000000000000CF
:10F9360000000000000000000000000000000000C1
:10F9460000000000000000000000000000000000B1
:10F9560000000000000000000000000000000000A1
:10F966000000000000000000000000000000000091
:10F97600000000000000000000C080000000000041
:10F986000000060A050D01010387FEFEFCF8F000E3
:10F996000000000000000000000000000000000061
:10F9A6000000000000000000000000000000000051
:10F9B6000000000000000000000000000000000041
:10F9C60000000000000080808000000000000000B1
:10F9D600000000000000000080C0C0000000000021
:10F9E6000000000000000000000000000000000011
:10F9F6000000000000000000000000000000000001
:10FA060000060E080C0C0C0E0F0F07070303000070
:10FA160000000000000000000000000000000000E0
:10FA260000000000000000000000000000000000D0
:10FA360000000000000000000000000000000000C0
:10FA460080E03098DEE6E7F7D7D65656D7D75FDFA1
:10FA56003F3F2F9FD7DF6F6B6B7FF7F3F3E0EC9899
:10FA660030E08000000000000000000000808060A0
:10FA76007070604060E0E0E0E0E0E0E0C0C0E0F030
:10FA8600E040000000000000000000000000000050
:10FA96000000000000000000000000000000000060
:10FAA6000000000000000000000000000000000050
:10FAB6000000000000000000000000000000000040
:10FAC60003FBE0DFB1EF5FB9B0A0E66E2EB6B99FDB
:10FAD600AFA0A7BF99B6B6A6A6B0B0A9DFCFF07FF4
:10FAE60077FD018080800000000008EEB37DBE7FB8
:10FAF600C787B7B7B7CD7D8393FBCDB535A587CE81
:10FB0600FE1CF9C31C1000000000000000000000ED
:10FB160000000000000000000000000000000000DF
:10FB260000000000000000000000000000000000CF
:10FB360000000000000000000000000000000F1F91
:10FB46003F3C73EF9E7EFDFDEDADFDDDFFBFFF5F2C
:10FB5600DFEFFFFFFF6FFFDFEFFDDDFDBCFE7EBFCA
:10FB6600EF7B3E1F0F0700000E1F3C775F3D7DFBBE
:10FB7600FB7AFAFEFEFEFEFFFF7EFEBFFDF5F5F602
:10FB8600FAFBDF67783C1C000000000000000080E4
:10FB9600800000606000000000000000000000001F
:10FBA600000000000000C08000008080000000000F
:10FBB600000000004000103880000080C0C0000037
:10FBC600000000000001000081838387E7EFEFEB70
:10FBD600FFF7DFFAFEFFEBEEEEE76763616060605A
:10FBE600E0E0E0606060606060707070707070701F
:10FBF60071737B7F7F7F7F7F7E7F77767373717173
:10FC060070717070707070F0F0F0F0F0F0F0F1F16B
:10FC1600F1E0E0E8ECEEE7E2E4E8D0E0E0C0C0C006
:10FC2600C0C0C0101010101F13A1ADC849474240F4
:10FC3600C0DC78606020213130111A1B0B0D0C04DA
:10FC46000606060303031331717161818141202683
:10FC56000C1C3078000084C484840C040202010168
:10FC6600070E0E000000000000000000000000006B
:10FC760000000000000000000060E0E0C08000001E
:10FC8600000000000000000060E0C0C000008181AC
:10FC96008141412121131313030B0B0B0F0F070790
:10FCA6000707070000000000000301010000060727
:10FCB6000303000000000000000000000000080C24
:10FCC60040EE79350208080404021F3D3C0000009E
:10FCD6000000040424000D30310103000000000080
:10FCE6000000000000000000000000000082C6C600
:10FCF600366844B4A05262020202000103327A3E20
:10FD06001A02020202020202001D3D1D010100004C
:10FD160000000000000000000000000000000000DD
:10FD260000000000050720000000000000005F0042
:10FD3600000003000300143E143E14242A7F2A12F6
:10FD4600433308666136495522500005030000001A
:10FD56001C2241000041221C0014083E0814080819
:10FD66003E080800503000000808080808006060D7
:10FD7600000020100804023E5149453E0004027F5F
:10FD860000426151494622414949361814127F10F2
:10FD960027454545393E494949320101710907362A
:10FDA60049494936264949493E003636000000563B
:10FDB60036000008142241001414141414004122C1
:10FDC600140802015109063E4159555E7E0909098A
:10FDD6007E7F494949363E414141227F4141413E6C
:10FDE6007F494949417F090909013E4141493A7F15
:10FDF6000808087F00417F4100304040403F7F08AF
:10FE06001422417F404040407F020C027F7F020463
:10FE1600087F3E4141413E7F090909061E212121F5
:10FE26005E7F09090976264949493201017F0101A8
:10FE36003F4040403F1F2040201F7F2010207F4131
:10FE4600221C224107087008076151494543007F7B
:10FE560041000002040810200000417F0004020156
:10FE66000204404040404000010204002054545423
:10FE7600787F444444383844444444384444447FB6
:10FE8600385454541804047E0505085454543C7FD1
:10FE96000804047800447D40002040443D007F1063
:10FEA60028440000417F40007C047804787C0804E4
:10FEB600047838444444387C141414080814141480
:10FEC6007C007C080404485454542004043F4444F1
:10FED6003C4040207C1C2040201C3C4030403C44A0
:10FEE600281028440C5050503C4464544C4400089C
:10FEF60036414100007F0000414136080002010200
:10FF06000402141414141400000000000000000081
:10FF160000000000000000000000000000000000DB
:10FF260000000000000000000000000000000000CB
:10FF360000000000000000000000000000000000BB
:10FF460000000000000000000000000000000000AB
:10FF5600000000000000000000000000000000009B
:10FF6600000000000000000000000000000000008B
:10FF7600000000000000000000000000000000007B
:10FF860000000000000000000000000000AED58068
:10FF9600A83FD300408D10A1C8DA12819FD922DB79
:10FFA60040A4A6AF00104043757272656E7420506F
:10FFB600726F66696C653A00536F6C696420436FB3
:10FFC6006C6F722020202000436F6D6574277320AC
:10FFD6005461696C20202000546865617465722044
:10FFE60043686173652020004F6E6520436F6C6F18
:09FFF600722050756C7365000067
:020000040001F9
:100000001B6E000E1F6E000E1E6E000E216E000E87
:10001000206E000E1D6E000E1C6E780E1B24156ED9
:10002000166A000E162238EF82F0000E186E000ECF
:10003000176EF1EF80F0000E1F6E000E1E6E2BEF9C
:1000400080F0000E076E000E086E000E096EA7EC21
:100050008FF01E4A1F2A1C501E5C1F50800A0A6E19
:100060001D50800A0A58D8A038EF80F03AEF80F08F
:1000700021EF80F01BC019F01A6A69EF80F019C0F7
:100080000AF07F0E0B6E000E0C6E0A2A4BEF80F00A
:100090000C340C320B320A2E48EF80F00BC00DF0FE
:1000A0000CC00EF0000E0EBEFF0E0F6E106E0EC0D6
:1000B0000FF00DC00EF00D6A0DC007F00EC008F075
:1000C0000FC009F0A7EC8FF01E4A1F2A1906D8A00E
:1000D0001A0620501E5C1F50800A0A6E2150800AAA
:1000E0000A58D8A076EF80F078EF80F03FEF80F0EC
:1000F00020501E1807E121501F18D8A482EF80F06D
:1001000084EF80F08CEF80F0000E076E7F0E086E9B
:10011000000E096EA7EC8FF021BE98EF80F0215001
:1001200009E1770E205CD8A098EF80F09AEF80F07C
:10013000A0EF80F0000E216E770E206EA6EF80F00B
:10014000010E2024206E000E2120216E1B500A6E0D
:100150000B6A0A50205C2150800A0C6E0B50800AFA
:100160000C58D8A0B6EF80F0B8EF80F0D7EF80F051
:10017000770E20182110D8B4C0EF80F0C2EF80F0C5
:10018000CBEF80F01B50205C116E2150D8A02104D1
:10019000126ED1EF80F0010E1C24116E000E1D2096
:1001A000126E11C01CF012C01DF0DBEF80F0000ECB
:1001B0001D6E000E1C6E150E0A6EC60EE82EFED7C2
:1001C0000A2EFCD700D0030E0B6E080E0A6E770EB7
:1001D000E82EFED70A2EFCD70B2EFAD700F0174ACE
:1001E000182A1550175C16501858D8B0FAEF80F03E
:1001F000FCEF80F004EF81F04A50D8B402EF81F0B8
:1002000004EF81F01BEF80F0050E0B6E0F0E0A6EEF
:10021000F10EE82EFED70A2EFCD70B2EFAD700F0EF
:10022000000E216E770E206E000E1D6E770E1C6E76
:10023000000E186E000E176E25EF82F0000E1F6E76
:10024000000E1E6E2EEF81F0000E076E000E086E7F
:10025000000E096EA7EC8FF01E4A1F2A20501E5C6C
:100260001F50800A0A6E2150800A0A58D8A03BEF1E
:1002700081F03DEF81F024EF81F01E4A1F2A010E2C
:1002800020240A6E000E21200B6E1E500A1807E172
:100290001F500B18D8A44FEF81F051EF81F059EFA8
:1002A00081F0000E076E7F0E086E000E096EA7EC3F
:1002B0008FF0000E1A6E010E196E88EF81F019C0D2
:1002C0000AF07F0E0B6E000E0C6E0A2A6BEF81F0A7
:1002D0000C340C320B320A2E68EF81F00BC00DF09B
:1002E0000CC00EF0000E0EBEFF0E0F6E106E0EC094
:1002F0000FF00DC00EF00D6A0DC007F00EC008F033
:100300000FC009F0A7EC8FF01E4A1F2A194A1A2ABB
:100310001E501C5C1D50800A0A6E1F50800A0A582D
:10032000D8B095EF81F097EF81F05FEF81F01E502C
:100330001C5C1D50800A0A6E1F50800A0A58D8B0F3
:10034000A4EF81F0A6EF81F0AEEF81F0000E076E12
:10035000000E086E000E096EA7EC8FF021BEBBEFF9
:1003600081F0215006E12004D8B0B9EF81F0BBEF55
:1003700081F0C1EF81F0000E216E000E206EC7EFFC
:1003800081F0FF0E2024206EFF0E2120216E2050D0
:100390001C5C0A6E21501D580B6E1B500C6E0D6AB2
:1003A0000A500C5C0D50800A0E6E0B50800A0E58DD
:1003B000D8A0DDEF81F0DFEF81F0ECEF81F021BE1E
:1003C000ECEF81F0215006E12004D8B0EAEF81F093
:1003D000ECEF81F00BEF82F01DBEF9EF81F01D50C4
:1003E00006E11C04D8B0F7EF81F0F9EF81F0FFEFE0
:1003F00081F0000E146E000E136E05EF82F0FF0EFA
:100400001C24136EFF0E1D20146E13C01CF014C0AC
:100410001DF00FEF82F0000E1D6E770E1C6E150E94
:100420000A6EC60EE82EFED70A2EFCD700D0030EA9
:100430000B6E080E0A6E770EE82EFED70A2EFCD73A
:100440000B2EFAD700F0174A182A1550175C1650D1
:100450001858D8B02EEF82F030EF82F038EF82F0EB
:100460004A50D8B436EF82F038EF82F01EEF81F0B8
:100470004A50D8B43EEF82F040EF82F015EF80F0A2
:100480001200010E2024236E000E2120246E600035
:100490008FF0F6FF600093F0F7FF000EF86E080093
:1004A0006F00D4FF32F0020E2024236E000E2120B4
:1004B000246E60008FF0F6FF600093F0F7FF000EEF
:1004C000F86E08006F00D4FF2BF0030E2024236E7B
:1004D000000E2120246E60008FF0F6FF600093F084
:1004E000F7FF000EF86E08006F00D4FF2CF0FF0E2F
:1004F000236EFF0E246E2B50256E266A2350252670
:10050000245026222634263225322634263225321D
:10051000263426322532252832026F00CCFF2DF0FA
:10052000ABEF82F0000E346E040E336EC0EF82F03B
:100530002C501F5C036E046AD8A004062DC005F081
:10054000066A3FEC8EF0040E0324336E000E042086
:10055000346EC0EF82F01F50236E246A2450000ACC
:10056000D8B4B5EF82F098EF82F023500A0AD8B4DD
:1005700092EF82F0070AD8B492EF82F098EF82F0FF
:10058000000E356E1BEF83F02250D8B4CAEF82F014
:10059000CCEF82F0F4EF82F0000E2F6E000E2E6E84
:1005A000400E2E6E35502024236E000E2120246E26
:1005B000335023263450242260008FF0F6FF600071
:1005C00093F0F7FF000EF86E0800F550FF0A2F6E4B
:1005D0002E0E1A6E000E1B6E000E1D6E020E1C6E8D
:1005E0001FEC8CF01AEF83F0000E316E000E306EAF
:1005F000400E306E35502024236E000E2120246ED4
:10060000335023263450242260008FF0F6FF600020
:1006100093F0F7FF000EF86E08006F00D4FF31F082
:10062000300E1A6E000E1B6E000E1D6E020E1C6E3A
:100630001FEC8CF0352A3250355CD8A022EF83F0C5
:1006400024EF83F0C4EF82F02250D8B42AEF83F075
:100650002CEF83F03CEF83F05AC027F05BC028F00A
:10066000270E1A6E000E1B6E000E1D6E020E1C6E03
:100670001FEC8CF04AEF83F058C029F059C02AF0E3
:10068000290E1A6E000E1B6E000E1D6E020E1C6EE1
:100690001FEC8CF01200000E146E000E136E26EF8D
:1006A00084F0000E086E780E076E000E096E000EC4
:1006B0000A6E190E0B6ED2EC8CF0EBEF83F0000E8D
:1006C000086E780E076E190E096E000E0A6E000E87
:1006D0000B6ED2EC8CF0EBEF83F0000E086E780E10
:1006E000076E190E096E000E0A6E190E0B6ED2EC13
:1006F0008CF0EBEF83F0000E086E780E076E000EA4
:10070000096E190E0A6E000E0B6ED2EC8CF0EBEF38
:1007100083F0000E086E780E076E000E096E190E3B
:100720000A6E190E0B6ED2EC8CF0EBEF83F0000E1C
:10073000086E780E076E190E096E190E0A6E000EFD
:100740000B6ED2EC8CF0EBEF83F0000E086E780E9F
:10075000076E190E096E190E0A6E190E0B6ED2EC89
:100760008CF0EBEF83F0000E086E780E076E000E33
:10077000096E000E0A6E000E0B6ED2EC8CF0EBEFE1
:1007800083F013C011F014C012F01250000AD8B454
:10079000CCEF83F0B3EF83F01150010AD8B451EFDE
:1007A00083F0030AD8B45FEF83F0010AD8B46DEF89
:1007B00083F0070AD8B47BEF83F0010AD8B489EF3D
:1007C00083F0030AD8B497EF83F0010AD8B4A5EFF9
:1007D00083F0B3EF83F0010E1324116E000E14208A
:1007E000126E070E1114136E146A13501410D8B43D
:1007F000FCEF83F0FEEF83F004EF84F013C013F0FE
:1008000014C014F008EF84F0000E146E010E136E85
:10081000150E116EC60EE82EFED7112EFCD700D095
:100820004A50D8B416EF84F018EF84F01AEF84F031
:100830002EEF84F0520E126E2B0E116E000EE82E6B
:10084000FED7112EFCD7122EFAD700D04A50D8B4BA
:100850002CEF84F02EEF84F0C1EF83F01200A2ECB5
:100860008DF03A0E036E1D0E046E010E056EC7EC80
:100870008FF0D00E036E1F0E046E010E056EC0ECDD
:100880008FF0D28E000E1AEC87F0000E086E780EF4
:10089000076E7DEC8BF037EC8AF0DAEC88F0000E16
:1008A000366EAD0E376EFF0E386E290E396EFD0EA8
:1008B0003A6E000E3B6E000EFAEC89F0B6EF84F053
:1008C000000E366ECE0E376EFF0E386E290E396E64
:1008D000FD0E3A6E000E3B6E080EFAEC89F0060E25
:1008E00000EC80F0D0EF84F0000E366EDE0E376E36
:1008F000FF0E386E290E396EFD0E3A6E000E3B6EFD
:10090000080EFAEC89F0040E0A6E030E80EC85F0F6
:10091000D0EF84F0000E366EEE0E376EFF0E386E9E
:10092000290E396EFD0E3A6E000E3B6E080EFAEC83
:1009300089F016EC86F0D0EF84F0000E366EBE0E15
:10094000376EFF0E386E290E396EFD0E3A6E000EB0
:100950003B6E080EFAEC89F0000E0E6E000E0F6E64
:10096000000E106E4BEC83F0D0EF84F04B50000182
:100970009E6F9F6B9F51000AD8B4C1EF84F09DEF2A
:1009800084F09E51000AD8B460EF84F0010AD8B414
:1009900074EF84F0030AD8B48AEF84F09DEF84F0FA
:1009A0004A50D8B4D6EF84F0D8EF84F0B6EF84F094
:1009B000000E4A6EB6EF84F00DEF00F05BEC8FF0A6
:1009C0000009D8B4E6EF84F0E8EF84F024EF85F076
:1009D000F5EF84F0D5EC8FF07FEF85F037EC90F0F9
:1009E0007FEF85F0000E7FEF85F078C00EF079C0C4
:1009F0000FF020EE69F002D808EF85F00500FA6EDE
:100A0000DE50FD6EDE50FE6EDE50FF6EFA501200BC
:100A1000126E136A1350000AD8B411EF85F0F2EF8A
:100A200084F01250010AD8B4F2EF84F0030AD8B46B
:100A3000EAEF84F0010AD8B4EEEF84F0070AD8B4E4
:100A4000F2EF84F0F2EF84F050EC8FF00009D8B4AC
:100A50002CEF85F02EEF85F07EEF85F000018951B7
:100A6000030B0009D8B437EF85F039EF85F045EF77
:100A700085F0010E126E8951030B136E1250135E36
:100A800089511318FC0B1318896F60000FF2F6FFE1
:100A9000600013F2F7FF000EF86E1F0EF76403D02C
:100AA0000800F55007D06F00DBFFE9FF6F00DFFFA4
:100AB000EAFFEF50166E0001834B842B8507D8A008
:100AC000860785518611D8A468EF85F06AEF85F016
:100AD00072EF85F0BBEC89F0126E1250146E156A3D
:100AE00076EF85F0000E156E030E146E14C017F02D
:100AF0001650EEEC8FF017507FEF85F0030E1200CA
:100B00000F6E0F500A24146E156A153614C012F0B9
:100B100015C013F00DEF86F0000E0E6E000E0D6E78
:100B200012C010F013C011F0C5EF85F00F50105C2B
:100B3000000E1158D8B09FEF85F0A1EF85F0ABEF14
:100B400085F0000E076E190E086E000E096EA7ECF8
:100B50008FF0B3EF85F0000E076E000E086E000EEA
:100B6000096EA7EC8FF00D4A0E2A010E1024036EB9
:100B7000000E1120046E14C005F015C006F01DEC27
:100B80008BF003C010F004C011F00E5007E1780E96
:100B90000D5CD8B0CEEF85F0D0EF85F0D8EF85F0C2
:100BA0004A50D8B4D6EF85F0D8EF85F096EF85F0AF
:100BB000150E0B6EC60EE82EFED70B2EFCD700D0FE
:100BC000020E0C6EA00E0B6E920EE82EFED70B2EB0
:100BD000FCD70C2EFAD700D012501310D8B4F3EF74
:100BE00085F0F5EF85F007EF86F0FF0E1224036E17
:100BF000FF0E1320046E14C005F015C006F01DECA6
:100C00008BF003C012F004C013F00DEF86F0FF0E5E
:100C10001424126EFF0E1520136E4A50D8B413EF31
:100C200086F015EF86F08CEF85F012009CEF86F0D1
:100C3000000E136E000E126E41EF86F0000E086E6D
:100C4000780E076E12C00EF013C00FF0000E0FBE2C
:100C5000FF0E106E116E0FC010F00EC00FF00E6A76
:100C60000EC009F00FC00AF010C00BF0D2EC8CF0EF
:100C7000D00E0E6ECA0EE82EFED70E2EFCD7124AEC
:100C8000132A13BE4FEF86F0135007E1400E125C9B
:100C9000D8B04DEF86F04FEF86F057EF86F04A5010
:100CA000D8B455EF86F057EF86F01EEF86F0000EB1
:100CB000136E400E126E81EF86F0000E086E780EF5
:100CC000076E12C00EF013C00FF0000E0FBEFF0E25
:100CD000106E116E0FC010F00EC00FF00E6A0EC035
:100CE00009F00FC00AF010C00BF0D2EC8CF0D00E5F
:100CF0000E6ECA0EE82EFED70E2EFCD71206D8A016
:100D0000130613BE86EF86F088EF86F090EF86F02C
:100D10004A50D8B48EEF86F090EF86F05DEF86F003
:100D2000090E0F6E1E0E0E6EE40EE82EFED70E2E6E
:100D3000FCD70F2EFAD700D04A50D8B4A2EF86F0D5
:100D4000A4EF86F018EF86F0120066EC8FF0000931
:100D5000D8A4ADEF86F0AFEF86F0B2EF86F0040EC8
:100D600019EF87F000018951030B0009D8B4BBEFDC
:100D700086F0BDEF86F0C9EF86F0010E146E895142
:100D8000030B156E1450155E89511518FC0B1518C0
:100D9000896F8507D8A0860785518611D8B4D3EF0F
:100DA00086F0D5EF86F0F6EF86F060000FF2F6FFE2
:100DB000600013F2F7FF000EF86E21EC90F0146E55
:100DC0001F0EF76405D0600053F0F5FF0C0009D04A
:100DD0006F00DBFFE9FF6F00DFFFEAFF600053F009
:100DE000EFFF0001834B842BAFEF86F088EC88F097
:100DF000166E60000FF2F6FF600013F2F7FF000EB0
:100E0000F86E21EC90F0146E1F0EF76405D06000B0
:100E100053F0F5FF0C0009D06F00DBFFE9FF6F0016
:100E2000DFFFEAFF600053F0EFFF0001834B842BEC
:100E300016501200046E3D0114BF21EF87F023EF1E
:100E400087F086EF87F00450050D240EF324F66E2C
:100E5000F90EF420F76EF86A000EF82208006F0011
:100E6000D7FF14FD0450050D010EF326000EF422E9
:100E7000240EF324F66EF90EF420F76EF86A000ED5
:100E8000F82208006F00D7FF15FD0450050D020E73
:100E9000F326000EF422240EF324F66EF90EF4204D
:100EA000F76EF86A000EF8220800F5500209166F76
:100EB000050E1C6F0450050D030EF326000EF422E0
:100EC000240EF324F66EF90EF420F76EF86A000E85
:100ED000F82208006F00D7FF19FD0450050D040E1D
:100EE000F326000EF422240EF324F66EF90EF420FD
:100EF000F76EF86A000EF82208006F00D4FF03F0C6
:100F0000C4500318FE0B0318C46E148F1200000E99
:100F1000BE6E000EBD6E000EBA6E000EBB6E000EF1
:100F2000BC6E060EC66EC268C368620EC46EC5682B
:100F30003A017069600E606F5069020E806FF10EA9
:100F4000406F000E716F040E816F000E516F0E0E18
:100F5000416F000E616F000E5A6F000E5B6F000E46
:100F60006A6F000E6B6F000E7A6F000E7B6F000EC3
:100F7000826F000E426F000E526F180E626F000EED
:100F8000726F4369536963697369070E836F4469BC
:100F90005469646974690F0E846F1E0E106F100E11
:100FA000DE6F140EE26F210E136F220E146F1F0EF0
:100FB000126F010E176F130EE16F110EDF6F12002B
:100FC000020E0E24106E000E0F20116E600043F012
:100FD000F6FF600047F0F7FF000EF86E1F0EF76493
:100FE00009D009006F00D4FF03F009006F00D4FF9F
:100FF00004F00CD06F00DBFFE9FF6F00DFFFEAFFBA
:101000006F00B8FF03F06F00B8FF04F060003BF022
:10101000F6FF60003FF0F7FF000EF86E1F0EF7645A
:1010200009D009006F00D4FF05F009006F00D4FF5C
:1010300006F00CD06F00DBFFE9FF6F00DFFFEAFF77
:101040006F00B8FF05F06F00B8FF06F07AEC8EF085
:10105000000E096E000E0A6E000E0B6E000E0C6E76
:10106000000E0D6E05EC8FF0020E1200036E010EE5
:10107000046E000189B73FEF88F041EF88F086EFFA
:1010800088F003C082F089958987FC0E89170F0EBE
:10109000876F010E816FF40E806F8989760E606F05
:1010A000200E616F010E626F000E726F000E736F83
:1010B000760E636F200E646F010E656F000E746F05
:1010C000000E756F760E666F200E676F010E686FEB
:1010D000000E766F000E776F760E696F200E6A6FC6
:1010E000010E6B6F000E786F000E796F720E6C6FD1
:1010F000200E6D6F010E6E6F000E7A6F000E7B6F0B
:101100000DEC90F0B9EC8DF0000E046E045012005E
:1011100000018989ACEF88F024EC90F0080ED9EF3B
:1011200088F024EC90F0070ED9EF88F000018529B3
:10113000F3EC8FF0040ED9EF88F0070E0001871949
:10114000D8B4A5EF88F0A7EF88F0A9EF88F027ECD6
:1011500090F00F0ED9EF88F072C00EF073C00FF050
:1011600002D8BDEF88F00500FA6E6051FD6E615146
:10117000FE6E6251FF6EFA501200126E136A135027
:10118000000AD8B4C6EF88F09DEF88F01250010A2B
:10119000D8B49DEF88F0030AD8B491EF88F0010A23
:1011A000D8B48CEF88F0070AD8B496EF88F09DEF9A
:1011B00088F01200000E216E070E2164E2EF88F025
:1011C000E4EF88F0E6EF88F027EF89F03C0E36EC8C
:1011D00088F020EE1AF0060EDE6AE806FDE2800EC8
:1011E0001A6E2150B0091B6E800E1C6E000E1D6E13
:1011F000800E1E6E100E1F6E400E206E1A0E036EB5
:10120000000E046E000E066E070E056E7AEC8EF070
:10121000240E096E1A0E0A6E010E0B6E0E0E0C6E67
:10122000FF0E0D6E05EC8FF0000E496E840E486EB9
:10123000FDEC8FF0FDEC8DF0E806D8B422EF89F0DC
:1012400024EF89F01AEF89F0212ADCEF88F01200F0
:101250001E6E3C0E36EC88F0000E1F6E000E206EE7
:10126000000E216E000E226E000E1F6E1E38E84624
:101270001F0BB009206E1A50020F0F0B216E1A506F
:101280001B6E1C6A020E1B26000E1C22040E1D6E15
:101290001C341C321B321D2E48EF89F01B501009E4
:1012A000226E1F0E036E000E046E000E066E040EFC
:1012B000056E7AEC8EF0000E096E000E0A6E000EBE
:1012C0000B6E000E0C6E000E0D6E05EC8FF0FDEC3B
:1012D0008FF0FDEC8DF0E806D8B471EF89F073EF74
:1012E00089F069EF89F01200086E035004100510B0
:1012F000D8B47DEF89F07FEF89F0A0EF89F0085036
:10130000030D600EF324D96E000EF420DA6E600037
:101310000FF0DEFF600013F0DEFF600017F0DEFF6D
:101320000850020D720EF324D96E000EF420DA6E0E
:1013300060001BF0DEFF60001FF0DDFFBAEF89F0F8
:101340000850030D600EF324D96E000EF420DA6EFF
:10135000760EDE6E200EDE6E010EDE6E0850020D81
:10136000720EF324D96E000EF420DA6E000EDE6EDB
:10137000000EDD6E120000018989D0EF89F024ECA7
:1013800090F0070EF9EF89F000018529F3EC8FF05A
:10139000030EF9EF89F027EC90F00A0EF9EF89F0CF
:1013A00072C00EF073C00FF002D8E1EF89F00500B3
:1013B000FA6E6051FD6E6151FE6E6251FF6EFA5021
:1013C0001200126E136A1350000AD8B4EAEF89F0C3
:1013D000CBEF89F01250010AD8B4CBEF89F0030AA1
:1013E000D8B4BFEF89F0060AD8B4C4EF89F0CBEFC8
:1013F00089F012003E6E36C01AF03E5028EC89F09B
:10140000000E3F6E22EF8AF036C01EF03F503724A8
:101410003C6E000E38203D6E6000F3F0F6FF600079
:10142000F7F0F7FF000EF86E08006F00D4FF1FF012
:1014300039C020F03AC021F03BC022F03E5041ECD0
:1014400082F03F2A37C003F038C004F0B1EC8CF0D2
:101450003F503C6E3D6A03503C5C04503D58D8A060
:1014600034EF8AF036EF8AF004EF8AF01200000EB3
:10147000096E000E0A6E000E0B6E000E0C6E000E52
:101480000D6E05EC8FF0000E096E000E0A6E000E58
:101490000B6E000E0C6E000E0D6EF7EC8EF0000E53
:1014A000096E000E0A6E000E0B6E000E0C6E000E22
:1014B0000D6EE9EC8EF0000E096E000E0A6E000E45
:1014C0000B6E000E0C6E000E0D6EDBEC8EF0920EAD
:1014D0001A6EFF0E1B6E000E1D6E1B0E1C6E1FEC97
:1014E0008CF012000DEC90F0020E0001886F85EF79
:1014F0008AF0D5EC8FF0ACEF8AF037EC90F0ACEFDF
:101500008AF0B8EC8FF0ACEF8AF074C00EF075C0C2
:101510000FF020EE63F002D898EF8AF00500FA6E23
:10152000DE50FD6EDE50FE6EDE50FF6EFA50120091
:10153000126E136A1350000AD8B4A1EF8AF081EF3B
:101540008AF01250020AD8B479EF8AF0010AD8B4AE
:101550007DEF8AF081EF8AF01200D0EC8BF0000171
:101560008951030B0009D8B4B8EF8AF0BAEF8AF0BA
:10157000C7EF8AF05BEC8FF00009D8B4C2EF8AF0B5
:10158000C4EF8AF0C7EF8AF0100E0001876F0001E8
:101590008751030DEB0EF324F66EF80EF420F76E70
:1015A000F86A000EF82202D8E3EF8AF00500FA6E1E
:1015B0000900F550FD6E0900F550FE6E0900F5506A
:1015C000FF6EFA5012000001876F1200FC0E00013E
:1015D0008917020E886F8995F5EF8AF035EC90F047
:1015E0001CEF8BF00F0E1CEF8BF076C00EF077C067
:1015F0000FF020EE66F002D808EF8BF00500FA6ECF
:10160000DE50FD6EDE50FE6EDE50FF6EFA501200B0
:10161000126E136A1350000AD8B411EF8BF0F2EF78
:101620008AF01250020AD8B4EEEF8AF0010AD8B458
:10163000EEEF8AF0F2EF8AF0120005500610D8B4EF
:1016400024EF8BF026EF8BF04AEF8BF0010E076E44
:101650002EEF8BF0D89005360636072A06AE33EF0C
:101660008BF035EF8BF02AEF8BF00550035C0650C2
:101670000458D8A03EEF8BF040EF8BF044EF8BF096
:101680000550035E0650045AD89006320532072EE4
:1016900035EF8BF003C003F004C004F012003901F1
:1016A000A3A155EF8BF057EF8BF059EF8BF07CEF48
:1016B0008BF0A2AF5EEF8BF060EF8BF062EF8BF000
:1016C0007CEF8BF03D0179A568EF8BF06AEF8BF032
:1016D0006CEF8BF07CEF8BF079AF71EF8BF073EFE9
:1016E0008BF075EF8BF07CEF8BF076A97AEF8BF0B7
:1016F0007CEF8BF04FEF8BF01200000E0E6E000EA1
:101700000D6E93EF8BF0000E0A6E000E0B6E000E46
:101710000C6E0AC004F00BC005F00CC006F09DEC86
:101720008FF00D4A0E2A07500D5C08500E58D8A0B5
:101730009CEF8BF09EEF8BF083EF8BF0150E096E14
:10174000C60EE82EFED7092EFCD700D01200186E68
:10175000010E196E000189B5B0EF8BF0B2EF8BF07E
:10176000CEEF8BF08985000E196E8551F3EC8FF06A
:101770001850D8B4BEEF8BF0C0EF8BF0C7EF8BF0F2
:10178000040E0001876FD0EC8DF0CCEF8BF0030ED0
:101790000001876F45EC8FF0BDEC8EF01950120000
:1017A00087EC8FF00009D8B4D8EF8BF0DAEF8BF02C
:1017B000DEEF8BF030EC90F0F8EF8BF071EC8FF007
:1017C0000009D8B4E6EF8BF0E8EF8BF0ECEF8BF08C
:1017D0002AEC90F0F8EF8BF07CEC8FF00009D8B495
:1017E000F4EF8BF0F6EF8BF0F8EF8BF02DEC90F040
:1017F0001200220EF66E200EF76E010EF86E00EE4D
:1018000056F010EE07F009006F00D7FFEEFFE5502D
:10181000E150F9E100EE60F03E0EEE6AE806FDE10F
:1018200000EE40F00C0EEE6AE806FDE1080ED56E03
:10183000000ED66E000ED76E00012FEF84F03C0E26
:1018400036EC88F01AC003F01BC004F01CC005F091
:101850001DC006F07AEC8EF0000E096E000E0A6EC6
:10186000000E0B6E000E0C6E000E0D6E05EC8FF070
:10187000FDEC8FF0FDEC8DF0E806D8B442EF8CF073
:1018800044EF8CF03AEF8CF01200000EA76E000EC1
:10189000A86E060EA96E670EA56E690EA46E3901BC
:1018A000A69DA4506F0094FE06F0076A06C007F0DC
:1018B000066A0610526E0750536E968D7A0E036EAE
:1018C000200E046E010E056EC0EC8FF0310EA66E78
:1018D0001200000EB36E000EB46E060EB56EC20E90
:1018E000B16EF70EB06E3901A491B0506F00C4FE16
:1018F00006F0076A06C007F0066A0610546E075025
:10190000556E94817C0E036E200E046E010E056EE2
:10191000C7EC8FF0010EB26E1200390196AD93EF55
:101920008CF095EF8CF0A0EF8CF0A6AD9AEF8CF0D8
:101930009CEF8CF0A0EF8CF0F2EC8CF0B0EF8CF020
:1019400094A1A5EF8CF0A7EF8CF0B0EF8CF0A4A1E0
:10195000ACEF8CF0AEEF8CF0B0EF8CF092EC8FF03F
:10196000110003C005F004C006F0B9EF8CF0034A83
:10197000042A60000FF0F6FF600013F0F7FF000E7E
:10198000F86E0800F5500009D8A4C9EF8CF0CBEF31
:101990008CF0B7EF8CF00550035C036E06500458D2
:1019A000046E1200000E0D6E000E0C6E000E0D6E19
:1019B000000E0C6EE6EF8CF009C004F00AC005F0D2
:1019C0000BC006F09DEC8FF00C4A0D2A07500C5C02
:1019D00008500D58D8A0EFEF8CF0F1EF8CF0DCEF51
:1019E0008CF012003901A69D52C001F053C002F0E4
:1019F00013EC8EF04C504D104E10D8B402EF8DF019
:101A000004EF8DF011EF8DF002D811EF8DF005008D
:101A1000FA6E4C50FD6E4D50FE6E4E50FF6EFA50F9
:101A2000120012000EC003F00FC004F048C005F011
:101A300049C006F07AEC8EF0000E096E000E0A6EB8
:101A4000000E0B6E000E0C6E000E0D6E05EC8FF08E
:101A5000040E12000EC003F00FC004F0000E066E5C
:101A6000010E056E7AEC8EF0000E096E000E0A6E05
:101A7000000E0B6E000E0C6E000E0D6E05EC8FF05E
:101A8000040E12000EC003F00FC004F0000E066E2C
:101A9000020E056E7AEC8EF0000E096E000E0A6ED4
:101AA000000E0B6E000E0C6E000E0D6E05EC8FF02E
:101AB000020E12000EC003F00FC004F0000E066EFE
:101AC000010E056E7AEC8EF0000E096E000E0A6EA5
:101AD000000E0B6E000E0C6E000E0D6E05EC8FF0FE
:101AE000020E12000EC003F00FC004F0000E066ECE
:101AF000020E056E7AEC8EF0000E096E000E0A6E74
:101B0000000E0B6E000E0C6E000E0D6E05EC8FF0CD
:101B1000040E12004F5050105110D8B492EF8DF0B7
:101B200094EF8DF0A1EF8DF002D8A1EF8DF00500BC
:101B3000FA6E4F50FD6E5050FE6E5150FF6EFA50CF
:101B40001200120033EC90F068EC8EF08CEC8EF00A
:101B500087EC87F039EC8FF0E7EC8DF045EC8CF0FA
:101B6000AEEC8EF02DEC8FF069EC8CF013EC8FF076
:101B700012003D0173BFBFEF8DF0C1EF8DF0CFEFCD
:101B80008DF0000E796F000E7A6F000E766F6C6923
:101B9000510E3A016A6F510E6B6F3D01738F120047
:101BA00000018951FC0B0209896F85058611D8A4B3
:101BB000DCEF8DF0DEEF8DF0E0EF8DF088EC88F05B
:101BC000D88000018235EEEC8FF0040E1200010E79
:101BD0003C01756F2C0E766F2B0E776F180E786F99
:101BE000080E796F090E7A6F200E7B6F020E7C6FE4
:101BF000080E7D6F800E746F1200010E036E0001DF
:101C000089B505EF8EF007EF8EF011EF8EF0899712
:101C100082690DEC90F0CCEC8EF0E2EC8FF088C095
:101C200003F003501200A6A418EF8EF01AEF8EF006
:101C300023EF8EF0A6900250A56E600007F0A4FF7F
:101C4000A68028EF8EF00250A56E600007F0A4FF7A
:101C50001200B2A42EEF8EF030EF8EF039EF8EF03E
:101C6000B2900250B16E600007F0B0FFB2803EEF5C
:101C70008EF00250B16E600007F0B0FF120003500A
:101C800005026F00CCFF07F06F00D0FF08F0035093
:101C90000602F350082604500502F350082607C038
:101CA00003F008C004F0120018EC90F015EC90F06E
:101CB0000009D8B45EEF8EF060EF8EF066EF8EF024
:101CC000000EF3EC8FF0000EEEEC8FF0000E120021
:101CD000000E3901C06F000EC16F000EC26F000E02
:101CE000C36F000EC46F000EC56F000EC66F000EEE
:101CF000C76F1200000189A980EF8EF082EF8EF08D
:101D00008BEF8EF003C083F004C084F005C085F033
:101D100006C086F089991200040E3D01736F800E93
:101D2000746F180E756F030E7B6F000E796F000EC7
:101D30007A6F000E766F6C691200BEB0A2EF8EF063
:101D4000A5EF8EF0010EA6EF8EF0000EFF0A016ED9
:101D5000BE500118FE0B0118BE6E1200010EAE6ED1
:101D6000000EAD6E000EAF6E090EAB6E000EAA6EC9
:101D70003901A495800EAC6E1200C3EF8EF04FECCB
:101D80008BF0ADEC8AF0000189B5C9EF8EF0CBEF96
:101D90008EF0BFEF8EF01200390193939395929FCE
:101DA00093913D017A917A957A9F7A9D7A93769371
:101DB00076957691120009C003F00AC004F00BC0BA
:101DC00005F00CC006F00DC007F0040E74EC89F0AD
:101DD000120009C003F00AC004F00BC005F00CC0EB
:101DE00006F00DC007F0030E74EC89F0120009C074
:101DF00003F00AC004F00BC005F00CC006F00DC0E3
:101E000007F0020E74EC89F0120009C003F00AC05A
:101E100004F00BC005F00CC006F00DC007F0000E7A
:101E200074EC89F01200020E3D01146F200E156F44
:101E3000000E166F050E1C6F000E196FC490120075
:101E4000036E60000FF011FD3D0117AB2AEF8FF01C
:101E50002CEF8FF024EF8FF01200800E6E6E040EC8
:101E60006D6EC00E6C6E3F015F51FC0B01095F6F20
:101E70001200600E3901D96F000EDB6F000EDD6FAE
:101E8000080EDF6F000EDE6F120000018951FC0B9F
:101E90000209896F82518225EEEC8FF0030E120049
:101EA0003D0178BB56EF8FF059EF8FF0010E5AEFDE
:101EB0008FF0000E12003D0174BB61EF8FF064EFF4
:101EC0008FF0010E65EF8FF0000E12003D0178B12A
:101ED0006CEF8FF06FEF8FF0010E70EF8FF0000E50
:101EE00012003D0179B577EF8FF07AEF8FF0010E98
:101EF0007BEF8FF0000E12003D0176B982EF8FF07C
:101F000085EF8FF0010E86EF8FF0000E12003D017D
:101F100079BF8DEF8FF090EF8FF0010E91EF8FF082
:101F2000000E12003901A49154C001F055C002F016
:101F300029EC8EF08AEC8DF01200045020EC8FF02A
:101F4000055020EC8FF0065020EC8FF0120007C0F7
:101F500004F008C005F009C006F09DEC8FF01200F7
:101F6000F8EC8FF000018995020E886F0F0E1200B9
:101F7000F8EC8FF000018995000E886F0F0E1200AB
:101F800003C04CF004C04DF005C04EF0120003C079
:101F90004FF004C050F005C051F012001BEC90F05F
:101FA00018EC90F0DCEC8FF0120000018551F3EC9E
:101FB0008FF0D0EC8DF0120000018995000E886F33
:101FC0000F0E12003D01739F000E796F788512008D
:101FD0004B28030B4B6E010E4A6E1200036E60001D
:101FE0000FF06BFD1200036E60000FF06CFD12002D
:101FF0003D01739F7885738F1200000EA7EC8BF064
:1020000012001BEC90F0090E12001EEC90F0040E72
:1020100012001EEC90F0030E1200000E3D01796FCD
:09202000120000EE400040FF40F8
:10202A003D016C5112003D01739B12003D01748DFC
:10203A0012003D01749D12003D016A5112003D01DA
:10204A00738D12003D01739D12003D0179951200B6
:10205A003D01769912003D01799F1200D29A120031
:10206A00010E1200020E1200050E1200010E1200DD
:04207A00120012003E
:020000040020DA
:10000000FF0FFF0FFF0FFF0FFF0FFF0FFF0FFF0F80
:020000040030CA
:0A0000008CFFF7FF9FFFFFFFFFFFDB
:00000001FF
